:100000000C94A7000C94CF000C94CF000C94CF005C
:100010000C94CF000C94CF000C94CF000C94CF0024
:100020000C94CF000C94CF000C9421060C949006F5
:100030000C94CF000C94CF000C94CF000C94CF0004
:100040000C94CF000C94CF000C94CF000C94CF00F4
:100050000C94CF000C94CF000C94CF000C94D705D7
:100060000C94CF000C94CF000C94CF000C94CF00D4
:100070000C94CF000C94CF000C94CF000C94CF00C4
:100080000C94CF000C94CF000C94CF000C94CF00B4
:100090000C94CF000C94CF000C94CF000C94CF00A4
:1000A0000C94CF000C94CF000C94CF00080B0002EE
:1000B0000202000009040000010202000005240001
:1000C0001001052401010104240206052406000193
:1000D0000705810310004009040100020A00000026
:1000E00007050202400000070583024000000403E8
:1000F000090412010002EF020140313152520001A5
:10010000010203014D00505050505050505050507B
:1001100050500005010902A1010901A10085010556
:10012000091901290315002501950375018102951F
:10013000017505810305010930093109381581254B
:100140007F750895038106C0C000C208690B1124A1
:100150001FBECFEFDAE0DEBFCDBF21E0AAE3B1E002
:1001600001C01D92AF3DB207E1F711E0A0E0B1E0A0
:10017000EEEFFBE102C005900D92AA33B107D9F76B
:1001800010E0C6EAD0E004C02197FE010E94E00B17
:10019000C53AD107C9F70E945D090C94F20D0C9481
:1001A0000000CF93DF93FC0181819091B101482F32
:1001B000490F5527551F483051059CF5A281B38141
:1001C000109709F52DEA31E03383228320812093B3
:1001D000AF018093B0018091B201820F80832091A2
:1001E000B301A22FB091B4018A2F821B8917E8F4C2
:1001F00081813D91C82FD0E0C45FDE4F38838F5F8F
:100200008183F2CFD90118962D913C911997211530
:100210003105C1F72DEA31E019963C932E931897DA
:10022000D5CF80E0DF91CF91089581E0FBCFFC0135
:1002300080915801882311F13FB7F89482E08093B0
:10024000E9002091F200822F90E01816190614F4AC
:1002500081E090E0882339F0289844E640935701E4
:100260004091F1004083222339F02091F2002111C6
:1002700003C02BE62093E8003FBF08958FEF9FEF68
:1002800008953FB7F8948091530190915401A09143
:100290005501B091560126B5A89B05C02F3F19F016
:1002A0000196A11DB11D3FBFBA2FA92F982F8827F6
:1002B000BC01CD01620F711D811D911D42E0660FD1
:1002C000771F881F991F4A95D1F70895CF92DF9223
:1002D000EF92FF920E9441016B017C010E9441015B
:1002E0006C197D098E099F09683E7340810591054F
:1002F000A8F3FF90EF90DF90CF900895089540917C
:10030000480150914901209146013091470142171F
:100310005307B4F49091E8009570E1F39091E800F0
:1003200092FD19C08093F10080914801909149019C
:1003300001968F739927892B19F48EEF8093E8002B
:1003400080914801909149010196909349018093D1
:10035000480181E0089580E00895EF92FF920F93A5
:100360001F93CF93DF93F82E192FE62E042F81E0F1
:10037000860F880F0E947F0183E00E947F01CF2DAE
:10038000D12FEC0EFD2EF11CCE15DF05B9F007FFC5
:1003900013C0FE0184910E947F01182F80E00E940B
:1003A0007F01812321968111EFCFDF91CF911F91A2
:1003B0000F91FF90EF9008958881EDCF81E0F5CF08
:1003C000DF92EF92FF920F931F93CF93DF93D82E7C
:1003D0008A01EB017B01E40EF51ECE15DF0559F015
:1003E000D7FE12C0FE0184910E947F0121968111E7
:1003F000F4CF0FEF1FEFC801DF91CF911F910F9145
:10040000FF90EF90DF9008958881EECF2FB7F8949A
:1004100087708093E9009091E800892F807295FFA2
:1004200004C09091F20080E4891B2FBF08957F9251
:100430008F929F92AF92BF92CF92DF92EF92FF92F4
:100440000F931F93CF93DF93C82E8B017A01809176
:100450005801811110C08FEF9FEFDF91CF911F9155
:100460000F91FF90EF90DF90CF90BF90AF909F9053
:100470008F907F90089580914C0180FF05C08091FE
:10048000E00082608093E000CE2DDF2DD12C8AEF3A
:10049000B82E8C2D8770982E8C2D8072882E8C2DE6
:1004A0008074782E9AE3A92E209719F4DD2009F4A0
:1004B0004EC08C2D0E940602811106C0BA94BB204A
:1004C00051F20E946601F0CF8C171D0611F00CF05E
:1004D0008C2F9FB7F8949092E9002091E80025FDB9
:1004E00002C09FBFE1CF282F30E0C21BD30B882072
:1004F00029F08150A0F01092F100FBCFF801C7FC69
:100500000AC0815050F041914093F100FACF4491DC
:100510004093F10031968150D0F7020F131FDD2078
:1005200021F0A092E800D12CDCCF8091E80085FD7D
:1005300007C0A092E800DD24D394209791F2F3CF76
:10054000209779F6772069F2A092E800CACF5D98EB
:1005500084E680934B01C70180CF615030F0209139
:10056000F100FC0120830196F8CF289884E680935F
:100570005701089580913E0181110DC082E0809362
:100580003A0184E080933B0110923D0110923C01BE
:1005900081E080933E018AE391E008951F93CF9319
:1005A000DF9300D000D01F92CDB7DEB79091D40179
:1005B00099838A836B831C828091BE0181112AC03A
:1005C00011E01093B1011093B20187EB91E0909389
:1005D000B4018093B3011092B6011092B5018FE27D
:1005E00091E09093AE018093AD011092B901109209
:1005F000B8011092BB011092BA011093BC01109384
:10060000BD0181EC8093B7010E94BA020E94D10023
:100610001093BE0181E08D8341E050E0BE016B5F2D
:100620007F4F8091B0010E94170297FD0AC0809110
:10063000B00144E050E0BE016F5F7F4F80640E94D4
:1006400017020F900F900F900F900F90DF91CF91A6
:100650001F91089581E08093D40160E080E00E94C2
:10066000CE021092D40160E080E00C94CE020F9391
:100670001F93CF93DF931F92CDB7DEB782E08983BC
:1006800042E450E06CEA70E080E80E94E0010E94E1
:10069000BA02DC0112960D911C910115110589F029
:1006A000D801ED91FC910280F381E02DBE016F5FD6
:1006B0007F4FC801099597FD04C0F8010085118599
:1006C000ECCF89810F90DF91CF911F910F91089509
:1006D000CF93DF93EC0180910B01882331F083E00D
:1006E0000E9417021816190634F081E090E09B83EF
:1006F0008A8380E090E0DF91CF910895CF93DF93DC
:100700001F92CDB7DEB76983DC01ED91FC910280C9
:10071000F381E02D41E050E0BE016F5F7F4F09950E
:100720000F90DF91CF91089583E08093E90080914D
:10073000F200882319F08AE38093E800089583E0AB
:100740000E94060290E00895CF93DF931F92CDB7E9
:10075000DEB7FC018485958597FD08C02FEF3FEF3C
:10076000358724870F90DF91CF910895CE010196B0
:100770000E941701019719F4898190E0F3CF8FEF60
:100780009FEFF0CF2FB7F8948091590190915A01C3
:10079000A0915B01B0915C012FBF809365019093A4
:1007A0006601A0936701B09368018DE591E00E9416
:1007B000A40397FF26C02FB7F89480915901909118
:1007C0005A01A0915B01B0915C012FBF409165017E
:1007D000509166016091670170916801841B950BCF
:1007E000A60BB70B409161015091620160916301CA
:1007F0007091640184179507A607B707B0F28FEFD1
:100800009FEF08950F931F93CF93DF931F92CDB760
:10081000DEB78C01FC018485958597FF0BC0CE0166
:1008200001960E941701019771F4898190E0F80107
:1008300095878487F801848595850F90DF91CF9106
:100840001F910F9108958FEF9FEFF1CFFC018485E9
:10085000958597FD0BC09FB7F89482E08093E900DF
:100860008091F2009FBF90E0019608959FB7F894A1
:1008700082E08093E9008091F2009FBF90E00895AC
:10088000DC01FB0112962C91129784819581281727
:10089000190641F491818081813A31F49D7F81E094
:1008A000913009F080E008958132E1F79B3029F41E
:1008B00082811F968C9381E008959A3099F7828106
:1008C00050968C93F8CFDC01FB0188E4808389E4A7
:1008D000818384E482831D969C911D979F709F5B0A
:1008E00093831D968D919C9124E0969587952A95EA
:1008F000E1F78F708F5B848385E00895EF92FF921C
:100900000F931F93CF93DF93FB012081213871F563
:100910002381223259F5DC0112964C9124813581D4
:100920004217130619F5EC010B851C85F12CE12CFF
:100930000115110589F0F8014481558162817381A7
:1009400080E80E94E0018F3F980749F0E80EF91E09
:10095000D8010D911C91ECCF81E08F87C701DF9109
:10096000CF911F910F91FF90EF90089590E080E05C
:10097000F6CFCF93DF93CDB7DEB769970FB6F89474
:10098000DEBF0FBECDBFFC01DB018C918F5F8C936E
:100990009E012D5F3F4F8DE0D9011D928A95E9F7A9
:1009A00029E0298384E08A8391E09D8383E08E831C
:1009B0002A8721E22B879C879D879F8722E2288BAD
:1009C00027E02B8B25E02C8B8E8B20E430E0388FBA
:1009D0002F8B998F82818B8395858685998B8A8BC6
:1009E000838180688D8B49E150E0BE016F5F7F4F4E
:1009F00080E00E94E00169960FB6F894DEBF0FBE5A
:100A0000CDBFDF91CF910895CF93DF93EC01888123
:100A10009981009711F00E94820C198218821D8220
:100A20001C821B821A82DF91CF910895FC01808184
:100A30009181009711F00C94820C08950F931F93ED
:100A4000CF93DF93EC0188819981009759F02A8137
:100A50003B812617370730F081E0DF91CF911F915E
:100A60000F9108958B016F5F7F4F0E940B0D0097D0
:100A700059F0998388831B830A832C813D81232B22
:100A800059F7FC011082E8CF80E0E7CFEF92FF92A8
:100A90000F931F93CF93DF938C017B01EB010990A0
:100AA0000020E9F72197C61BD70BBE010E941E0547
:100AB000811109C0C801DF91CF911F910F91FF9063
:100AC000EF900C940405F801D583C483B7018081AD
:100AD0009181DF91CF911F910F91FF90EF900C9436
:100AE000D10DBF92CF92DF92EF92FF920F931F939F
:100AF000CF93DF93EC016B017A014617570720F47F
:100B00008D2D6A01E62EF82E198218821B821A8218
:100B10001D821C8268E371E0CE010E9446050091AF
:100B2000D9011091DA01C016D10670F5E016F10670
:100B300008F48701E091D501F091D601E00FF11F93
:100B4000B0801082E090D501F090D601EC0CFD1C35
:100B5000E114F10471F0F70101900020E9F73197F9
:100B60006F01CE18DF08B601CE010E941E0581116B
:100B700016C0CE010E9404058091D5019091D60146
:100B8000080F191FF801B082CE01DF91CF911F919C
:100B90000F91FF90EF90DF90CF90BF900895DD828E
:100BA000CC82B701888199810E94D10DE5CF1F9237
:100BB0000F920FB60F9211242F933F938F939F9311
:100BC000AF93BF938091590190915A01A0915B011D
:100BD000B0915C013091520123E0230F2D3758F57D
:100BE0000196A11DB11D209352018093590190934C
:100BF0005A01A0935B01B0935C01809153019091E5
:100C00005401A0915501B09156010196A11DB11D4D
:100C10008093530190935401A0935501B0935601D2
:100C2000BF91AF919F918F913F912F910F900FBEE8
:100C30000F901F90189526E8230F0296A11DB11D55
:100C4000D2CF1F920F920FB60F9211248F939F93C2
:100C50008091E1009091E100937F9093E10083FF08
:100C60000FC01092E90091E09093EB001092EC001D
:100C700092E39093ED001092580198E09093F00069
:100C800082FF22C093E09093E9009091F2009923B3
:100C900019F09AE39093E80090914B01992341F069
:100CA00090914B01915090934B01911101C05D9A2D
:100CB00090915701992341F0909157019150909351
:100CC0005701911101C0289A84FF18C08091E20059
:100CD0008E7E81608093E2008091E1008F7E809320
:100CE000E10080914C018E7E806180934C019F9148
:100CF0008F910F900FBE0F901F90189580FFF7CF28
:100D00008091E2008E7E80618093E2008091E1001C
:100D10008E7E8093E10080914C018E7E8160E5CFD4
:100D20001F920F920FB60F921124CF92DF92EF9283
:100D3000FF920F931F932F933F934F935F936F9364
:100D40007F938F939F93AF93BF93EF93FF93CF9333
:100D5000DF93CDB7DEB76C97DEBFCDBF1092E90051
:100D60008091E80083FF25C068E0CE0145960E948F
:100D7000AD0282EF8093E8008D8987FF39C09091A2
:100D8000E80090FFFCCF982F907609F034C19E893F
:100D90004F89588D2F89F88C911131C0803861F5B9
:100DA00080914D018093F1001092F1008EEF8093BD
:100DB000E8006C960FB6F894DEBF0FBECDBFDF9192
:100DC000CF91FF91EF91BF91AF919F918F917F91C3
:100DD0006F915F914F913F912F911F910F91FF90D4
:100DE000EF90DF90CF900F900FBE0F901F9018954F
:100DF0009EEF9093E800C7CF1092F100D5CF9130CD
:100E000059F48111D3CF4130510581F680914D01C4
:100E10008D7F80934D01CACF933049F48111C6CFA5
:100E20004130510519F680914D018260F2CF953025
:100E300041F48091E80080FFFCCF20682093E3001C
:100E4000B5CF963009F0A9C00B8D1C8D22E0109211
:100E5000E9001092490110924801F2122EC010923E
:100E60004701109246010E9437031F8299E099833F
:100E7000FA8291E09E8390EA98879AEF9987209171
:100E8000480130914901275F3F4F3C832B838D837D
:100E90001092E90010924901109248011093470105
:100EA0000093460149E050E0BE016F5F7F4F80E054
:100EB0000E94E0010E94370379CF1093470100930D
:100EC00046010E94BA02DC0112960D911C91011597
:100ED000110509F451C1D801ED91FC910480F5810F
:100EE000E02DBE016B5E7F4FC8010995009709F0A8
:100EF0003EC1F80100851185EACFF3E0FF120EC074
:100F00008F89882309F440C0823061F440E86CE0A6
:100F100086E091E00E94AD01811148CF81E280938B
:100F2000EB0047CF813029F440E861E084E091E0B4
:100F3000F1CF833099F70E94BA02DC011296ED904E
:100F4000FC908E010F5F1F4F6801E114F10479F0EE
:100F5000D701ED91FC910680F781E02DB801C70122
:100F60000995080F111DF701E084F184EECFD80137
:100F70001C92F60101900020E9F73197BF016C192E
:100F80007D0940E0C601C6CF6EEE70E0FB014491E2
:100F900050E080E80E94E00109CF973009F4BECF0D
:100FA000983021F481E08093F10000CF993009F06E
:100FB000FDCE837009F0B2CFEDE0F1E081E031E0E9
:100FC00096E32191222371F08093E9003093EB00A6
:100FD000DF0111972C912093EC009093ED008F5F2F
:100FE000873079F78EE78093EA001092EA008F89C4
:100FF00080935801DBCE8B8D9C8D1092E90010926E
:101000004901109248019093470180934601898DD0
:10101000811192C08E899D89913A49F4813209F0FB
:101020007DCF47E050E064E071E080E0B3CF9132E3
:1010300009F074CF833269F48F89988DB0E0A0E015
:101040008093000190930101A0930201B0930301EA
:10105000ADCE803269F48091E80082FFFCCF67E07A
:1010600084E091E00E94AD028BEF8093E8009ECE79
:10107000823209F09BCE8F8980930B01EEEFFFE760
:10108000859194918B3F9C4D51F1E0E0F8E0809187
:10109000040190910501A0910601B0910701803BE8
:1010A0009440A105B105F1F480910B0180FD1AC0B7
:1010B000EE3F8AE0F80789F587E797E79183808319
:1010C0008091600080934A0188E19BE00FB6F8941C
:1010D000A895809360000FBE9093600067CEEEEFFE
:1010E000FAE0D5CF808191818737974709F05ECEAE
:1010F000A8958091600088618093600080914A018A
:1011000080936000EE3F2AE0F20789F08091FE0AAA
:101110009091FF0A9183808349CE808191818737A6
:10112000980751F29093FF0A8093FE0AC5CF109260
:10113000FF0A1092FE0A3ACE0E94BA02DC01129611
:101140000D911C910115110509F4E8CED801ED911E
:10115000FC910190F081E02DBE016B5E7F4FC801D4
:101160000995811123CEF80100851185EBCF181662
:1011700019060CF41BCED2CEF1E0FF12BECE62EF08
:1011800070E004CFCF931092600110925F0188EE5F
:1011900093E0A0E0B0E08093610190936201A0939E
:1011A0006301B09364018DE191E090935E018093BF
:1011B0005D018FEF9FEF90936A0180936901109218
:1011C000D4018091CC01811113C01092C7011092FB
:1011D000C60183E191E09093C9018093C80186E341
:1011E00090E09093CB018093CA0181E08093CC0181
:1011F0008091BE0181112AC0C1E0C093B101C093AA
:10120000B20187EB91E09093B4018093B301109207
:10121000B6011092B5018FE291E09093AE018093F8
:10122000AD011092B9011092B8011092BB01109259
:10123000BA01C093BC01C093BD0181EC8093B7019A
:101240000E94BA020E94D100C093BE01E091B80191
:10125000F091B901309741F586EC91E09093B90196
:101260008093B8018091BA019091BB012091CA018D
:101270003091CB01820F931F9093BB018093BA01F1
:101280001092D6011092D5011092D8011092D70178
:101290001092DA011092D90168E371E085ED91E0D6
:1012A000CF910C944605FC01808191810097D9F77C
:1012B00086EC91E091838083D5CFCF93DF93CDB738
:1012C000DEB762970FB6F894DEBF0FBECDBF78943D
:1012D00084B5826084BD84B5816084BD85B582603B
:1012E00085BD85B5816085BD80916E0081608093EC
:1012F0006E00109281008091810082608093810055
:101300008091810081608093810080918000816064
:101310008093800080919100826080939100809101
:101320009100816080939100809190008160809312
:1013300090008091C10084608093C1008091C100C1
:1013400082608093C1008091C10081608093C10060
:101350008091C30081608093C3008091C00082604F
:101360008093C0008091C20081608093C200809110
:101370007A00846080937A0080917A008260809302
:101380007A0080917A00816080937A0080917A005F
:10139000806880937A001092580110924D0110924B
:1013A0004C018091D70081608093D70080EA8093C0
:1013B000D80089B5806189BD89B5826089BD09B4CD
:1013C00000FEFDCF0E9466018091D8008F7C806175
:1013D0008093D8008091E000807F8093E00080912E
:1013E000E1008E7E8093E1008DE08093E200559ACB
:1013F000209A8FEF9FEF90936A018093690190E0AC
:10140000492E90E0592E8DE591E00E942604892B0B
:1014100009F437C11A8219821C821B821E821D8226
:1014200068E371E0CE0101960E9446050E94C20366
:1014300097FD1EC08A309105D9F08F8318860D81E3
:101440001E810F5F1F4FB801CE0101960E941E053D
:10145000882361F329813A818D819E81BE01695F74
:101460007F4F820F931F0E94D10D1E830D83DECF0D
:101470008091D5019091D601009709F48BC06981C4
:101480007A816115710509F483C04091D7015091AB
:10149000D8012D813E814217530708F479C00E947C
:1014A000D10D8D819E819093DA018093D9011E82A6
:1014B0001D82CE0101960E9416051A8219821C8295
:1014C0001B821E821D8267E371E0CE0101960E949D
:1014D00046058091D9019091DA01892B71F0009134
:1014E000D5011091D60169817A81C8010E94D80D79
:1014F0007C01E01AF10A892B19F4EE24EA94FE2CFF
:10150000CE0101960E9416051A8219821C821B8246
:101510001E821D8267E371E0CE0101960E9446059E
:101520008091D9019091DA012D813E816C01C21A1E
:10153000D30A2115310509F444C0009709F441C0CC
:1015400082179307F0F1C816D90620F06C0121E04C
:10155000C21AD108A090D501B090D60169807A80D6
:10156000C5010FEF1FEF45018C0C9D1C88169906D5
:1015700050F1B3010E94D80D009729F19C012A195E
:101580003B09C216D30608F4980101968901EECFF3
:101590000E94820C89819A819093D6018093D50113
:1015A0008B819C819093D8018093D7018D819E81FE
:1015B0009093DA018093D9011A8219821C821B82CE
:1015C00076CF0FEF1FEFCE0101960E9416058FEF29
:1015D000E816F80609F455C00F3F100709F451C08A
:1015E000E016F10609F44DC0A70170E060E0CE01FD
:1015F0000D960E947105B7016F5F7F4FA801CE0164
:1016000007960E9471054091D9015091DA01B80105
:101610006F5F7F4FCE0101960E9471058D859E857B
:1016200000E070E0009719F00E946D0B062F009308
:101630005001709351018F81988510E070E0009700
:1016400019F00E946D0B162F10934E0170934F01ED
:1016500089819A810097E1F00E946D0B62307105DB
:10166000A9F1D4F46130710541F1CE0101960E94D7
:101670001605CE0107960E941605CE010D960E9412
:1016800016054114510409F4BECE0E940000BBCEE1
:1016900060E070E0CB01E2CF6330710599F0643017
:1016A000710519F7612F802F0E94CE020E942A0334
:1016B000612F6195802F819502C0612F802F0E943C
:1016C000CE02D3CF612F802F0E94CE020E942A0328
:1016D000CCCF85ED91E00C9416051F93FC01992762
:1016E0008827BC01E89411911032E9F3193010F009
:1016F0001E30C8F31B3251F01D3249F4689406C005
:101700000E94940B610F711D811D911D1191105349
:101710001A30B0F33EF490958095709561957F4FA7
:101720008F4F9F4F1F910895592F482F372F262FE6
:10173000660F771F881F991F660F771F881F991FD5
:10174000620F731F841F951F660F771F881F991FD5
:1017500008952F923F924F925F926F927F928F9255
:101760009F92AF92BF92CF92DF92EF92FF920F9330
:101770001F93CF93DF93CDB7DEB7CA1BDB0B0FB63A
:10178000F894DEBF0FBECDBF09942A8839884888F7
:101790005F846E847D848C849B84AA84B984C8848D
:1017A000DF80EE80FD800C811B81AA81B981CE0F84
:1017B000D11D0FB6F894DEBF0FBECDBFED01089569
:1017C000EE0FFF1F0590F491E02D09940F931F93E6
:1017D000CF93DF938230910510F482E090E0E091A6
:1017E000DD01F091DE0130E020E0B0E0A0E03097D4
:1017F00099F42115310509F44AC0281B390B24300E
:101800003105D8F58A819B816115710589F1FB014C
:1018100093838283FE0111C0408151810281138133
:1018200048175907E0F04817590799F4109761F0E5
:1018300012960C93129713961C933296CF01DF9158
:10184000CF911F910F9108950093DD011093DE0158
:10185000F4CF2115310551F04217530738F0A90193
:10186000DB019A01BD01DF01F801C1CFEF01F9CF22
:101870009093DE018093DD01CDCFFE01E20FF31FD7
:10188000819391932250310939832883D7CF2091B6
:10189000DB013091DC01232B41F4209115013091C3
:1018A00016013093DC012093DB012091130130916C
:1018B00014012115310541F42DB73EB740911701B0
:1018C00050911801241B350BE091DB01F091DC01F4
:1018D000E217F307A0F42E1B3F0B2817390778F007
:1018E000AC014E5F5F4F2417350748F04E0F5F1F66
:1018F0005093DC014093DB01819391939FCFF0E003
:10190000E0E09CCFCF93DF930097E9F0FC013297A2
:1019100013821282A091DD01B091DE01ED0130E071
:1019200020E01097A1F420813181820F931F209134
:10193000DB013091DC012817390709F061C0F09311
:10194000DC01E093DB01DF91CF910895EA01CE172E
:10195000DF07E8F54A815B819E0141155105B1F72A
:10196000E901FB83EA8349915991C40FD51FEC1714
:10197000FD0761F4808191810296840F951FE90132
:1019800099838883828193819B838A83F0E0E0E05E
:1019900012968D919C9113970097B9F52D913C91DA
:1019A0001197CD010296820F931F2091DB01309198
:1019B000DC012817390739F6309751F51092DE010E
:1019C0001092DD01B093DC01A093DB01BCCFD38387
:1019D000C28340815181840F951FC817D90761F4D4
:1019E0004E5F5F4F88819981480F591F5183408313
:1019F0008A819B81938382832115310509F0B0CFC1
:101A0000F093DE01E093DD019ECFFD01DC01C0CF4C
:101A100013821282D7CFB0E0A0E0E1E1FDE00C94A8
:101A2000AB0B8C01009751F4CB010E94E60B8C01AB
:101A3000C801CDB7DEB7E0E10C94C70BFC01E60F9F
:101A4000F71F9C0122503109E217F30708F49DC0EB
:101A5000D901CD91DC911197C617D70798F0C53001
:101A6000D10530F3CE0104978617970708F3C61BFC
:101A7000D70B2297C193D1936D937C93CF010E9492
:101A8000820CD6CF5B01AC1ABD0A4C018C0E9D1E98
:101A9000A091DD01B091DE01512C412CF12CE12C03
:101AA000109731F58091DB019091DC018815990543
:101AB00009F05CC04616570608F058C08091130123
:101AC00090911401009741F48DB79EB74091170192
:101AD00050911801841B950BE817F90708F055C0C1
:101AE000F093DC01E093DB01F90171836083A0CF07
:101AF0008D919C91119712966C90129713967C90F1
:101B00001397A815B90559F56C0142E0C40ED11C14
:101B1000CA14DB0420F1AC014A195B09DA01129600
:101B2000159780F06282738251834083D9016D934F
:101B30007C93E114F10471F0D7011396FC93EE93BA
:101B4000129776CF22968C0F9D1FF9019183808387
:101B5000F301EFCFF093DE01E093DD0169CF48168A
:101B6000590608F42C017D01D3019ACFCB010E94C4
:101B7000E60B7C01009749F0AE01B8010E94C80D48
:101B8000C8010E94820C870153CF10E000E050CFC3
:101B9000FB01DC0102C001900D9241505040D8F78A
:101BA0000895FB01DC0101900D920020E1F70895FA
:101BB000FB0151915523A9F0BF01DC014D9145175F
:101BC0004111E1F759F4CD010190002049F04D9108
:101BD00040154111C9F3FB014111EFCF81E090E0C5
:101BE0000197089510E0C6EAD0E004C0FE010E940B
:0E1BF000E00B2196C73AD107C9F7F894FFCF52
:101BFE00FFFFFFFF00E100000000000000C1808138
:101C0E000000000000DF018000000000007E03687D
:101C1E00039F0394032604A4030204000000004063
:0A1C2E0004B9047E0463043A0000C8
:00000001FF
